{
  "address": "0x39C61b69d28CbAD1Bdd9221C1c8F585606216086",
  "abi": [
    {
      "inputs": [
        {
          "internalType": "uint256",
          "name": "_interval",
          "type": "uint256"
        }
      ],
      "stateMutability": "nonpayable",
      "type": "constructor"
    },
    {
      "inputs": [],
      "name": "Voting__CannotVoteAgain",
      "type": "error"
    },
    {
      "inputs": [],
      "name": "Voting__NotOpen",
      "type": "error"
    },
    {
      "inputs": [],
      "name": "Voting__OnlyOwnerCanSetNewVoting",
      "type": "error"
    },
    {
      "inputs": [],
      "name": "Voting__UpKeepNotNeeded",
      "type": "error"
    },
    {
      "anonymous": false,
      "inputs": [
        {
          "indexed": true,
          "internalType": "string[]",
          "name": "parties",
          "type": "string[]"
        }
      ],
      "name": "NewVoting",
      "type": "event"
    },
    {
      "anonymous": false,
      "inputs": [
        {
          "indexed": true,
          "internalType": "address",
          "name": "voter",
          "type": "address"
        }
      ],
      "name": "Voted",
      "type": "event"
    },
    {
      "anonymous": false,
      "inputs": [
        {
          "indexed": true,
          "internalType": "string",
          "name": "name",
          "type": "string"
        }
      ],
      "name": "WinnerPicked",
      "type": "event"
    },
    {
      "inputs": [
        {
          "internalType": "uint256",
          "name": "",
          "type": "uint256"
        }
      ],
      "name": "Parties",
      "outputs": [
        {
          "internalType": "string",
          "name": "",
          "type": "string"
        }
      ],
      "stateMutability": "view",
      "type": "function"
    },
    {
      "inputs": [
        {
          "internalType": "bytes",
          "name": "",
          "type": "bytes"
        }
      ],
      "name": "checkUpkeep",
      "outputs": [
        {
          "internalType": "bool",
          "name": "upkeepNeeded",
          "type": "bool"
        },
        {
          "internalType": "bytes",
          "name": "",
          "type": "bytes"
        }
      ],
      "stateMutability": "view",
      "type": "function"
    },
    {
      "inputs": [],
      "name": "getInterval",
      "outputs": [
        {
          "internalType": "uint256",
          "name": "",
          "type": "uint256"
        }
      ],
      "stateMutability": "view",
      "type": "function"
    },
    {
      "inputs": [],
      "name": "getLatestTimeStamps",
      "outputs": [
        {
          "internalType": "uint256",
          "name": "",
          "type": "uint256"
        }
      ],
      "stateMutability": "view",
      "type": "function"
    },
    {
      "inputs": [
        {
          "internalType": "uint256",
          "name": "no",
          "type": "uint256"
        }
      ],
      "name": "getPartiesName",
      "outputs": [
        {
          "internalType": "string",
          "name": "",
          "type": "string"
        }
      ],
      "stateMutability": "view",
      "type": "function"
    },
    {
      "inputs": [
        {
          "internalType": "uint256",
          "name": "no",
          "type": "uint256"
        }
      ],
      "name": "getVotes",
      "outputs": [
        {
          "internalType": "uint256",
          "name": "",
          "type": "uint256"
        }
      ],
      "stateMutability": "view",
      "type": "function"
    },
    {
      "inputs": [],
      "name": "getVotingState",
      "outputs": [
        {
          "internalType": "enum Voting.VotingState",
          "name": "",
          "type": "uint8"
        }
      ],
      "stateMutability": "view",
      "type": "function"
    },
    {
      "inputs": [],
      "name": "getWinner",
      "outputs": [
        {
          "internalType": "string",
          "name": "",
          "type": "string"
        }
      ],
      "stateMutability": "view",
      "type": "function"
    },
    {
      "inputs": [],
      "name": "i_interval",
      "outputs": [
        {
          "internalType": "uint256",
          "name": "",
          "type": "uint256"
        }
      ],
      "stateMutability": "view",
      "type": "function"
    },
    {
      "inputs": [],
      "name": "i_owner",
      "outputs": [
        {
          "internalType": "address",
          "name": "",
          "type": "address"
        }
      ],
      "stateMutability": "view",
      "type": "function"
    },
    {
      "inputs": [
        {
          "internalType": "bytes",
          "name": "",
          "type": "bytes"
        }
      ],
      "name": "performUpkeep",
      "outputs": [],
      "stateMutability": "nonpayable",
      "type": "function"
    },
    {
      "inputs": [
        {
          "internalType": "string[]",
          "name": "_Parties",
          "type": "string[]"
        }
      ],
      "name": "setVoting",
      "outputs": [],
      "stateMutability": "nonpayable",
      "type": "function"
    },
    {
      "inputs": [
        {
          "internalType": "uint256",
          "name": "partyNo",
          "type": "uint256"
        }
      ],
      "name": "vote",
      "outputs": [],
      "stateMutability": "nonpayable",
      "type": "function"
    },
    {
      "inputs": [
        {
          "internalType": "address",
          "name": "name",
          "type": "address"
        }
      ],
      "name": "votingStatus",
      "outputs": [
        {
          "internalType": "bool",
          "name": "",
          "type": "bool"
        }
      ],
      "stateMutability": "view",
      "type": "function"
    }
  ],
  "transactionHash": "0xe6b4f92934a80a0028ca7b6f4a593470f45105e358974dec3052306fc4f1e7f1",
  "args": [
    "10"
  ],
  "numDeployments": 6,
  "solcInputHash": "6c34695387407672e2950e38a06e237b",
  "bytecode": "0x60c06040523480156200001157600080fd5b506040516200192f3803806200192f8339818101604052810190620000379190620000ee565b80608081815250503373ffffffffffffffffffffffffffffffffffffffff1660a08173ffffffffffffffffffffffffffffffffffffffff16815250504260058190555060008060006101000a81548160ff02191690836001811115620000a257620000a162000120565b5b0217905550506200014f565b600080fd5b6000819050919050565b620000c881620000b3565b8114620000d457600080fd5b50565b600081519050620000e881620000bd565b92915050565b600060208284031215620001075762000106620000ae565b5b60006200011784828501620000d7565b91505092915050565b7f4e487b7100000000000000000000000000000000000000000000000000000000600052602160045260246000fd5b60805160a0516117a56200018a6000396000818161061201526109dc01526000818161056a01528181610594015261085a01526117a56000f3fe608060405234801561001057600080fd5b50600436106100ea5760003560e01c80638e7ea5b21161008c578063b2161ad111610066578063b2161ad11461024c578063dba6335f1461027c578063e9c2e17f1461029a578063ff981099146102b8576100ea565b80638e7ea5b2146101e057806391ad27b4146101fe57806392020fb01461021c576100ea565b80634585e33b116100c85780634585e33b146101595780636919207d146101755780636e04ff0d146101935780638341326b146101c4576100ea565b80630121b93f146100ef5780632ef081521461010b57806343a9616f14610129575b600080fd5b61010960048036038101906101049190610d28565b6102e8565b005b61011361043a565b6040516101209190610d64565b60405180910390f35b610143600480360381019061013e9190610ddd565b610444565b6040516101509190610e25565b60405180910390f35b610173600480360381019061016e9190610ea5565b61049a565b005b61017d610568565b60405161018a9190610d64565b60405180910390f35b6101ad60048036038101906101a89190611033565b61058c565b6040516101bb929190611104565b60405180910390f35b6101de60048036038101906101d991906112b6565b610610565b005b6101e86107c4565b6040516101f59190611354565b60405180910390f35b610206610856565b6040516102139190610d64565b60405180910390f35b61023660048036038101906102319190610d28565b61087e565b6040516102439190611354565b60405180910390f35b61026660048036038101906102619190610d28565b61092a565b6040516102739190611354565b60405180910390f35b6102846109da565b6040516102919190611385565b60405180910390f35b6102a26109fe565b6040516102af9190611417565b60405180910390f35b6102d260048036038101906102cd9190610d28565b610a14565b6040516102df9190610d64565b60405180910390f35b60011515600360003373ffffffffffffffffffffffffffffffffffffffff1673ffffffffffffffffffffffffffffffffffffffff16815260200190815260200160002060009054906101000a900460ff1615151415610373576040517fbbad5bcd00000000000000000000000000000000000000000000000000000000815260040160405180910390fd5b6001600360003373ffffffffffffffffffffffffffffffffffffffff1673ffffffffffffffffffffffffffffffffffffffff16815260200190815260200160002060006101000a81548160ff0219169083151502179055506002600082815260200190815260200160002060008154809291906103ef90611461565b91905055503373ffffffffffffffffffffffffffffffffffffffff167f16a9aa39af49f169911e977347975198c503525f7240d6892a626f0227642fce60405160405180910390a250565b6000600554905090565b6000600360008373ffffffffffffffffffffffffffffffffffffffff1673ffffffffffffffffffffffffffffffffffffffff16815260200190815260200160002060009054906101000a900460ff169050919050565b60006104b46040518060200160405280600081525061058c565b509050806104ee576040517f4b66b68a00000000000000000000000000000000000000000000000000000000815260040160405180910390fd5b6104f6610a31565b600460405161050591906115aa565b60405180910390207f66e6239145fbbf7d04b52770d72a414d5c7b2bd1ef1ce5837ff92482c377820f60405160405180910390a260008060006101000a81548160ff0219169083600181111561055e5761055d6113a0565b5b0217905550505050565b7f000000000000000000000000000000000000000000000000000000000000000081565b6000606060007f0000000000000000000000000000000000000000000000000000000000000000600554426105c191906115c1565b11905060008060009054906101000a900460ff1660018111156105e7576105e66113a0565b5b6001808111156105fa576105f96113a0565b5b1490508180156106075750805b93505050915091565b7f000000000000000000000000000000000000000000000000000000000000000073ffffffffffffffffffffffffffffffffffffffff163373ffffffffffffffffffffffffffffffffffffffff1614610695576040517fd3df35f300000000000000000000000000000000000000000000000000000000815260040160405180910390fd5b600060018111156106a9576106a86113a0565b5b60008054906101000a900460ff1660018111156106c9576106c86113a0565b5b14610700576040517fc2846e1200000000000000000000000000000000000000000000000000000000815260040160405180910390fd5b8060019080519060200190610716929190610aea565b5060005b6001805490508110156107535760006002600083815260200190815260200160002081905550808061074b90611461565b91505061071a565b5060016040516107639190611729565b60405180910390207fa12b38d711244e995608ff936ce5530a28ed8bf7c7681ca9bb87e8a7edd34a5960405160405180910390a260016000806101000a81548160ff021916908360018111156107bc576107bb6113a0565b5b021790555050565b6060600480546107d3906114d9565b80601f01602080910402602001604051908101604052809291908181526020018280546107ff906114d9565b801561084c5780601f106108215761010080835404028352916020019161084c565b820191906000526020600020905b81548152906001019060200180831161082f57829003601f168201915b5050505050905090565b60007f0000000000000000000000000000000000000000000000000000000000000000905090565b6001818154811061088e57600080fd5b9060005260206000200160009150905080546108a9906114d9565b80601f01602080910402602001604051908101604052809291908181526020018280546108d5906114d9565b80156109225780601f106108f757610100808354040283529160200191610922565b820191906000526020600020905b81548152906001019060200180831161090557829003601f168201915b505050505081565b6060600182815481106109405761093f611740565b5b906000526020600020018054610955906114d9565b80601f0160208091040260200160405190810160405280929190818152602001828054610981906114d9565b80156109ce5780601f106109a3576101008083540402835291602001916109ce565b820191906000526020600020905b8154815290600101906020018083116109b157829003601f168201915b50505050509050919050565b7f000000000000000000000000000000000000000000000000000000000000000081565b60008060009054906101000a900460ff16905090565b600060026000838152602001908152602001600020549050919050565b600080600090505b600180549050811015610adf578160026000838152602001908152602001600020541115610a7857600260008281526020019081526020016000205491505b8160026000838152602001908152602001600020541415610acc5760018181548110610aa757610aa6611740565b5b906000526020600020016004908054610abf906114d9565b610aca929190610b4a565b505b8080610ad790611461565b915050610a39565b504260058190555050565b828054828255906000526020600020908101928215610b39579160200282015b82811115610b38578251829080519060200190610b28929190610bd7565b5091602001919060010190610b0a565b5b509050610b469190610c5d565b5090565b828054610b56906114d9565b90600052602060002090601f016020900481019282610b785760008555610bc6565b82601f10610b895780548555610bc6565b82800160010185558215610bc657600052602060002091601f016020900482015b82811115610bc5578254825591600101919060010190610baa565b5b509050610bd39190610c81565b5090565b828054610be3906114d9565b90600052602060002090601f016020900481019282610c055760008555610c4c565b82601f10610c1e57805160ff1916838001178555610c4c565b82800160010185558215610c4c579182015b82811115610c4b578251825591602001919060010190610c30565b5b509050610c599190610c81565b5090565b5b80821115610c7d5760008181610c749190610c9e565b50600101610c5e565b5090565b5b80821115610c9a576000816000905550600101610c82565b5090565b508054610caa906114d9565b6000825580601f10610cbc5750610cdb565b601f016020900490600052602060002090810190610cda9190610c81565b5b50565b6000604051905090565b600080fd5b600080fd5b6000819050919050565b610d0581610cf2565b8114610d1057600080fd5b50565b600081359050610d2281610cfc565b92915050565b600060208284031215610d3e57610d3d610ce8565b5b6000610d4c84828501610d13565b91505092915050565b610d5e81610cf2565b82525050565b6000602082019050610d796000830184610d55565b92915050565b600073ffffffffffffffffffffffffffffffffffffffff82169050919050565b6000610daa82610d7f565b9050919050565b610dba81610d9f565b8114610dc557600080fd5b50565b600081359050610dd781610db1565b92915050565b600060208284031215610df357610df2610ce8565b5b6000610e0184828501610dc8565b91505092915050565b60008115159050919050565b610e1f81610e0a565b82525050565b6000602082019050610e3a6000830184610e16565b92915050565b600080fd5b600080fd5b600080fd5b60008083601f840112610e6557610e64610e40565b5b8235905067ffffffffffffffff811115610e8257610e81610e45565b5b602083019150836001820283011115610e9e57610e9d610e4a565b5b9250929050565b60008060208385031215610ebc57610ebb610ce8565b5b600083013567ffffffffffffffff811115610eda57610ed9610ced565b5b610ee685828601610e4f565b92509250509250929050565b600080fd5b6000601f19601f8301169050919050565b7f4e487b7100000000000000000000000000000000000000000000000000000000600052604160045260246000fd5b610f4082610ef7565b810181811067ffffffffffffffff82111715610f5f57610f5e610f08565b5b80604052505050565b6000610f72610cde565b9050610f7e8282610f37565b919050565b600067ffffffffffffffff821115610f9e57610f9d610f08565b5b610fa782610ef7565b9050602081019050919050565b82818337600083830152505050565b6000610fd6610fd184610f83565b610f68565b905082815260208101848484011115610ff257610ff1610ef2565b5b610ffd848285610fb4565b509392505050565b600082601f83011261101a57611019610e40565b5b813561102a848260208601610fc3565b91505092915050565b60006020828403121561104957611048610ce8565b5b600082013567ffffffffffffffff81111561106757611066610ced565b5b61107384828501611005565b91505092915050565b600081519050919050565b600082825260208201905092915050565b60005b838110156110b657808201518184015260208101905061109b565b838111156110c5576000848401525b50505050565b60006110d68261107c565b6110e08185611087565b93506110f0818560208601611098565b6110f981610ef7565b840191505092915050565b60006040820190506111196000830185610e16565b818103602083015261112b81846110cb565b90509392505050565b600067ffffffffffffffff82111561114f5761114e610f08565b5b602082029050602081019050919050565b600067ffffffffffffffff82111561117b5761117a610f08565b5b61118482610ef7565b9050602081019050919050565b60006111a461119f84611160565b610f68565b9050828152602081018484840111156111c0576111bf610ef2565b5b6111cb848285610fb4565b509392505050565b600082601f8301126111e8576111e7610e40565b5b81356111f8848260208601611191565b91505092915050565b600061121461120f84611134565b610f68565b9050808382526020820190506020840283018581111561123757611236610e4a565b5b835b8181101561127e57803567ffffffffffffffff81111561125c5761125b610e40565b5b80860161126989826111d3565b85526020850194505050602081019050611239565b5050509392505050565b600082601f83011261129d5761129c610e40565b5b81356112ad848260208601611201565b91505092915050565b6000602082840312156112cc576112cb610ce8565b5b600082013567ffffffffffffffff8111156112ea576112e9610ced565b5b6112f684828501611288565b91505092915050565b600081519050919050565b600082825260208201905092915050565b6000611326826112ff565b611330818561130a565b9350611340818560208601611098565b61134981610ef7565b840191505092915050565b6000602082019050818103600083015261136e818461131b565b905092915050565b61137f81610d9f565b82525050565b600060208201905061139a6000830184611376565b92915050565b7f4e487b7100000000000000000000000000000000000000000000000000000000600052602160045260246000fd5b600281106113e0576113df6113a0565b5b50565b60008190506113f1826113cf565b919050565b6000611401826113e3565b9050919050565b611411816113f6565b82525050565b600060208201905061142c6000830184611408565b92915050565b7f4e487b7100000000000000000000000000000000000000000000000000000000600052601160045260246000fd5b600061146c82610cf2565b91507fffffffffffffffffffffffffffffffffffffffffffffffffffffffffffffffff82141561149f5761149e611432565b5b600182019050919050565b7f4e487b7100000000000000000000000000000000000000000000000000000000600052602260045260246000fd5b600060028204905060018216806114f157607f821691505b60208210811415611505576115046114aa565b5b50919050565b600081905092915050565b60008190508160005260206000209050919050565b60008154611538816114d9565b611542818661150b565b9450600182166000811461155d576001811461156e576115a1565b60ff198316865281860193506115a1565b61157785611516565b60005b838110156115995781548189015260018201915060208101905061157a565b838801955050505b50505092915050565b60006115b6828461152b565b915081905092915050565b60006115cc82610cf2565b91506115d783610cf2565b9250828210156115ea576115e9611432565b5b828203905092915050565b600081549050919050565b600081905092915050565b60008190508160005260206000209050919050565b600081905092915050565b60008154611638816114d9565b6116428186611620565b9450600182166000811461165d576001811461166f576116a2565b60ff19831686526020860193506116a2565b61167885611516565b60005b8381101561169a5781548189015260018201915060208101905061167b565b808801955050505b50505092915050565b60006116b7838361162b565b905092915050565b6000600182019050919050565b60006116d7826115f5565b6116e18185611600565b93506116ec8361160b565b8060005b8381101561171c578161170388826116ab565b975061170e836116bf565b9250506001810190506116f0565b5085935050505092915050565b600061173582846116cc565b915081905092915050565b7f4e487b7100000000000000000000000000000000000000000000000000000000600052603260045260246000fdfea264697066735822122011b7ca4738caf6d797d42ce75e46618a6eb83406d18672a0840221584efb3d8f64736f6c63430008090033",
  "devdoc": {
    "kind": "dev",
    "methods": {},
    "version": 1
  },
  "userdoc": {
    "kind": "user",
    "methods": {},
    "version": 1
  },
  "storageLayout": {
    "storage": [
      {
        "astId": 43,
        "contract": "contracts/Voting.sol:Voting",
        "label": "s_votingState",
        "offset": 0,
        "slot": "0",
        "type": "t_enum(VotingState)38"
      },
      {
        "astId": 48,
        "contract": "contracts/Voting.sol:Voting",
        "label": "Parties",
        "offset": 0,
        "slot": "1",
        "type": "t_array(t_string_storage)dyn_storage"
      },
      {
        "astId": 52,
        "contract": "contracts/Voting.sol:Voting",
        "label": "voting",
        "offset": 0,
        "slot": "2",
        "type": "t_mapping(t_uint256,t_uint256)"
      },
      {
        "astId": 56,
        "contract": "contracts/Voting.sol:Voting",
        "label": "voters",
        "offset": 0,
        "slot": "3",
        "type": "t_mapping(t_address,t_bool)"
      },
      {
        "astId": 58,
        "contract": "contracts/Voting.sol:Voting",
        "label": "s_winner",
        "offset": 0,
        "slot": "4",
        "type": "t_string_storage"
      },
      {
        "astId": 60,
        "contract": "contracts/Voting.sol:Voting",
        "label": "s_lastTimeStamp",
        "offset": 0,
        "slot": "5",
        "type": "t_uint256"
      }
    ],
    "types": {
      "t_address": {
        "encoding": "inplace",
        "label": "address",
        "numberOfBytes": "20"
      },
      "t_array(t_string_storage)dyn_storage": {
        "base": "t_string_storage",
        "encoding": "dynamic_array",
        "label": "string[]",
        "numberOfBytes": "32"
      },
      "t_bool": {
        "encoding": "inplace",
        "label": "bool",
        "numberOfBytes": "1"
      },
      "t_enum(VotingState)38": {
        "encoding": "inplace",
        "label": "enum Voting.VotingState",
        "numberOfBytes": "1"
      },
      "t_mapping(t_address,t_bool)": {
        "encoding": "mapping",
        "key": "t_address",
        "label": "mapping(address => bool)",
        "numberOfBytes": "32",
        "value": "t_bool"
      },
      "t_mapping(t_uint256,t_uint256)": {
        "encoding": "mapping",
        "key": "t_uint256",
        "label": "mapping(uint256 => uint256)",
        "numberOfBytes": "32",
        "value": "t_uint256"
      },
      "t_string_storage": {
        "encoding": "bytes",
        "label": "string",
        "numberOfBytes": "32"
      },
      "t_uint256": {
        "encoding": "inplace",
        "label": "uint256",
        "numberOfBytes": "32"
      }
    }
  }
}