{
  "address": "0xC45B183E0db3F3B99D939EB50158F15f4AF4EEAD",
  "abi": [
    {
      "inputs": [
        {
          "internalType": "uint256",
          "name": "_interval",
          "type": "uint256"
        }
      ],
      "stateMutability": "nonpayable",
      "type": "constructor"
    },
    {
      "inputs": [],
      "name": "Voting__CannotVoteAgain",
      "type": "error"
    },
    {
      "inputs": [],
      "name": "Voting__OnlyOwnerCanSetNewVoting",
      "type": "error"
    },
    {
      "inputs": [],
      "name": "Voting__PreviousVotingRemaining",
      "type": "error"
    },
    {
      "inputs": [],
      "name": "Voting__UpKeepNotNeeded",
      "type": "error"
    },
    {
      "anonymous": false,
      "inputs": [
        {
          "indexed": true,
          "internalType": "string[]",
          "name": "parties",
          "type": "string[]"
        }
      ],
      "name": "NewVoting",
      "type": "event"
    },
    {
      "anonymous": false,
      "inputs": [
        {
          "indexed": true,
          "internalType": "address",
          "name": "voter",
          "type": "address"
        }
      ],
      "name": "Voted",
      "type": "event"
    },
    {
      "anonymous": false,
      "inputs": [
        {
          "indexed": true,
          "internalType": "string",
          "name": "name",
          "type": "string"
        }
      ],
      "name": "WinnerPicked",
      "type": "event"
    },
    {
      "inputs": [
        {
          "internalType": "uint256",
          "name": "",
          "type": "uint256"
        }
      ],
      "name": "Parties",
      "outputs": [
        {
          "internalType": "string",
          "name": "",
          "type": "string"
        }
      ],
      "stateMutability": "view",
      "type": "function"
    },
    {
      "inputs": [
        {
          "internalType": "bytes",
          "name": "",
          "type": "bytes"
        }
      ],
      "name": "checkUpkeep",
      "outputs": [
        {
          "internalType": "bool",
          "name": "upkeepNeeded",
          "type": "bool"
        },
        {
          "internalType": "bytes",
          "name": "",
          "type": "bytes"
        }
      ],
      "stateMutability": "view",
      "type": "function"
    },
    {
      "inputs": [],
      "name": "getInterval",
      "outputs": [
        {
          "internalType": "uint256",
          "name": "",
          "type": "uint256"
        }
      ],
      "stateMutability": "view",
      "type": "function"
    },
    {
      "inputs": [],
      "name": "getLatestTimeStamps",
      "outputs": [
        {
          "internalType": "uint256",
          "name": "",
          "type": "uint256"
        }
      ],
      "stateMutability": "view",
      "type": "function"
    },
    {
      "inputs": [
        {
          "internalType": "uint256",
          "name": "no",
          "type": "uint256"
        }
      ],
      "name": "getPartiesName",
      "outputs": [
        {
          "internalType": "string",
          "name": "",
          "type": "string"
        }
      ],
      "stateMutability": "view",
      "type": "function"
    },
    {
      "inputs": [
        {
          "internalType": "uint256",
          "name": "no",
          "type": "uint256"
        }
      ],
      "name": "getVotes",
      "outputs": [
        {
          "internalType": "uint256",
          "name": "",
          "type": "uint256"
        }
      ],
      "stateMutability": "view",
      "type": "function"
    },
    {
      "inputs": [],
      "name": "getWinner",
      "outputs": [
        {
          "internalType": "string",
          "name": "",
          "type": "string"
        }
      ],
      "stateMutability": "view",
      "type": "function"
    },
    {
      "inputs": [],
      "name": "i_interval",
      "outputs": [
        {
          "internalType": "uint256",
          "name": "",
          "type": "uint256"
        }
      ],
      "stateMutability": "view",
      "type": "function"
    },
    {
      "inputs": [],
      "name": "i_owner",
      "outputs": [
        {
          "internalType": "address",
          "name": "",
          "type": "address"
        }
      ],
      "stateMutability": "view",
      "type": "function"
    },
    {
      "inputs": [
        {
          "internalType": "bytes",
          "name": "",
          "type": "bytes"
        }
      ],
      "name": "performUpkeep",
      "outputs": [],
      "stateMutability": "nonpayable",
      "type": "function"
    },
    {
      "inputs": [
        {
          "internalType": "string[]",
          "name": "_Parties",
          "type": "string[]"
        }
      ],
      "name": "setVoting",
      "outputs": [],
      "stateMutability": "nonpayable",
      "type": "function"
    },
    {
      "inputs": [
        {
          "internalType": "uint256",
          "name": "partyNo",
          "type": "uint256"
        }
      ],
      "name": "vote",
      "outputs": [],
      "stateMutability": "nonpayable",
      "type": "function"
    },
    {
      "inputs": [
        {
          "internalType": "address",
          "name": "name",
          "type": "address"
        }
      ],
      "name": "votingStatus",
      "outputs": [
        {
          "internalType": "bool",
          "name": "",
          "type": "bool"
        }
      ],
      "stateMutability": "view",
      "type": "function"
    }
  ],
  "transactionHash": "0xa38adecd0714282eee30af213dc457b79bb9084c6079102ee5d585a4b21e104f",
  "args": [
    "120"
  ],
  "numDeployments": 5,
  "solcInputHash": "28bf2e06efa05eb88ff685de3b5b9fd9",
  "bytecode": "0x60c06040523480156200001157600080fd5b5060405162001813380380620018138339818101604052810190620000379190620000c1565b80608081815250503373ffffffffffffffffffffffffffffffffffffffff1660a08173ffffffffffffffffffffffffffffffffffffffff16815250504260048190555050620000f3565b600080fd5b6000819050919050565b6200009b8162000086565b8114620000a757600080fd5b50565b600081519050620000bb8162000090565b92915050565b600060208284031215620000da57620000d962000081565b5b6000620000ea84828501620000aa565b91505092915050565b60805160a0516116d76200013c60003960008181610600015261099c01526000818161033c015281816105a1015281816105c901528181610685015261081a01526116d76000f3fe608060405234801561001057600080fd5b50600436106100cf5760003560e01c80638341326b1161008c57806392020fb01161006657806392020fb014610201578063b2161ad114610231578063dba6335f14610261578063ff9810991461027f576100cf565b80638341326b146101a95780638e7ea5b2146101c557806391ad27b4146101e3576100cf565b80630121b93f146100d45780632ef08152146100f057806343a9616f1461010e5780634585e33b1461013e5780636919207d1461015a5780636e04ff0d14610178575b600080fd5b6100ee60048036038101906100e99190610cec565b6102af565b005b6100f8610468565b6040516101059190610d28565b60405180910390f35b61012860048036038101906101239190610da1565b610472565b6040516101359190610de9565b60405180910390f35b61015860048036038101906101539190610e69565b6104c8565b005b61016261059f565b60405161016f9190610d28565b60405180910390f35b610192600480360381019061018d9190610ff7565b6105c3565b6040516101a09291906110c8565b60405180910390f35b6101c360048036038101906101be919061127a565b6105fe565b005b6101cd610784565b6040516101da9190611318565b60405180910390f35b6101eb610816565b6040516101f89190610d28565b60405180910390f35b61021b60048036038101906102169190610cec565b61083e565b6040516102289190611318565b60405180910390f35b61024b60048036038101906102469190610cec565b6108ea565b6040516102589190611318565b60405180910390f35b61026961099a565b6040516102769190611349565b60405180910390f35b61029960048036038101906102949190610cec565b6109be565b6040516102a69190610d28565b60405180910390f35b60011515600260003373ffffffffffffffffffffffffffffffffffffffff1673ffffffffffffffffffffffffffffffffffffffff16815260200190815260200160002060009054906101000a900460ff161515141561033a576040517fbbad5bcd00000000000000000000000000000000000000000000000000000000815260040160405180910390fd5b7f0000000000000000000000000000000000000000000000000000000000000000600454426103699190611393565b11156103a1576040517f5dcb8c3100000000000000000000000000000000000000000000000000000000815260040160405180910390fd5b6001600260003373ffffffffffffffffffffffffffffffffffffffff1673ffffffffffffffffffffffffffffffffffffffff16815260200190815260200160002060006101000a81548160ff02191690831515021790555060016000828152602001908152602001600020600081548092919061041d906113c7565b91905055503373ffffffffffffffffffffffffffffffffffffffff167f16a9aa39af49f169911e977347975198c503525f7240d6892a626f0227642fce60405160405180910390a250565b6000600454905090565b6000600260008373ffffffffffffffffffffffffffffffffffffffff1673ffffffffffffffffffffffffffffffffffffffff16815260200190815260200160002060009054906101000a900460ff169050919050565b60006105086040518060400160405280600181526020017f20000000000000000000000000000000000000000000000000000000000000008152506105c3565b50905080610542576040517f4b66b68a00000000000000000000000000000000000000000000000000000000815260040160405180910390fd5b61054a6109db565b60036040516105599190611510565b60405180910390207f66e6239145fbbf7d04b52770d72a414d5c7b2bd1ef1ce5837ff92482c377820f60405160405180910390a260008061059a9190610a8d565b505050565b7f000000000000000000000000000000000000000000000000000000000000000081565b600060607f0000000000000000000000000000000000000000000000000000000000000000600454426105f69190611393565b119150915091565b7f000000000000000000000000000000000000000000000000000000000000000073ffffffffffffffffffffffffffffffffffffffff163373ffffffffffffffffffffffffffffffffffffffff1614610683576040517fd3df35f300000000000000000000000000000000000000000000000000000000815260040160405180910390fd5b7f0000000000000000000000000000000000000000000000000000000000000000600454426106b29190611393565b11156106ea576040517f5dcb8c3100000000000000000000000000000000000000000000000000000000815260040160405180910390fd5b8060009080519060200190610700929190610aae565b5060005b60008054905081101561073d57600060016000838152602001908152602001600020819055508080610735906113c7565b915050610704565b50600060405161074d919061165b565b60405180910390207fa12b38d711244e995608ff936ce5530a28ed8bf7c7681ca9bb87e8a7edd34a5960405160405180910390a250565b6060600380546107939061143f565b80601f01602080910402602001604051908101604052809291908181526020018280546107bf9061143f565b801561080c5780601f106107e15761010080835404028352916020019161080c565b820191906000526020600020905b8154815290600101906020018083116107ef57829003601f168201915b5050505050905090565b60007f0000000000000000000000000000000000000000000000000000000000000000905090565b6000818154811061084e57600080fd5b9060005260206000200160009150905080546108699061143f565b80601f01602080910402602001604051908101604052809291908181526020018280546108959061143f565b80156108e25780601f106108b7576101008083540402835291602001916108e2565b820191906000526020600020905b8154815290600101906020018083116108c557829003601f168201915b505050505081565b606060008281548110610900576108ff611672565b5b9060005260206000200180546109159061143f565b80601f01602080910402602001604051908101604052809291908181526020018280546109419061143f565b801561098e5780601f106109635761010080835404028352916020019161098e565b820191906000526020600020905b81548152906001019060200180831161097157829003601f168201915b50505050509050919050565b7f000000000000000000000000000000000000000000000000000000000000000081565b600060016000838152602001908152602001600020549050919050565b600080600090505b600080549050811015610a89578160016000838152602001908152602001600020541115610a2257600160008281526020019081526020016000205491505b8160016000838152602001908152602001600020541415610a765760008181548110610a5157610a50611672565b5b906000526020600020016003908054610a699061143f565b610a74929190610b0e565b505b8080610a81906113c7565b9150506109e3565b5050565b5080546000825590600052602060002090810190610aab9190610b9b565b50565b828054828255906000526020600020908101928215610afd579160200282015b82811115610afc578251829080519060200190610aec929190610bbf565b5091602001919060010190610ace565b5b509050610b0a9190610b9b565b5090565b828054610b1a9061143f565b90600052602060002090601f016020900481019282610b3c5760008555610b8a565b82601f10610b4d5780548555610b8a565b82800160010185558215610b8a57600052602060002091601f016020900482015b82811115610b89578254825591600101919060010190610b6e565b5b509050610b979190610c45565b5090565b5b80821115610bbb5760008181610bb29190610c62565b50600101610b9c565b5090565b828054610bcb9061143f565b90600052602060002090601f016020900481019282610bed5760008555610c34565b82601f10610c0657805160ff1916838001178555610c34565b82800160010185558215610c34579182015b82811115610c33578251825591602001919060010190610c18565b5b509050610c419190610c45565b5090565b5b80821115610c5e576000816000905550600101610c46565b5090565b508054610c6e9061143f565b6000825580601f10610c805750610c9f565b601f016020900490600052602060002090810190610c9e9190610c45565b5b50565b6000604051905090565b600080fd5b600080fd5b6000819050919050565b610cc981610cb6565b8114610cd457600080fd5b50565b600081359050610ce681610cc0565b92915050565b600060208284031215610d0257610d01610cac565b5b6000610d1084828501610cd7565b91505092915050565b610d2281610cb6565b82525050565b6000602082019050610d3d6000830184610d19565b92915050565b600073ffffffffffffffffffffffffffffffffffffffff82169050919050565b6000610d6e82610d43565b9050919050565b610d7e81610d63565b8114610d8957600080fd5b50565b600081359050610d9b81610d75565b92915050565b600060208284031215610db757610db6610cac565b5b6000610dc584828501610d8c565b91505092915050565b60008115159050919050565b610de381610dce565b82525050565b6000602082019050610dfe6000830184610dda565b92915050565b600080fd5b600080fd5b600080fd5b60008083601f840112610e2957610e28610e04565b5b8235905067ffffffffffffffff811115610e4657610e45610e09565b5b602083019150836001820283011115610e6257610e61610e0e565b5b9250929050565b60008060208385031215610e8057610e7f610cac565b5b600083013567ffffffffffffffff811115610e9e57610e9d610cb1565b5b610eaa85828601610e13565b92509250509250929050565b600080fd5b6000601f19601f8301169050919050565b7f4e487b7100000000000000000000000000000000000000000000000000000000600052604160045260246000fd5b610f0482610ebb565b810181811067ffffffffffffffff82111715610f2357610f22610ecc565b5b80604052505050565b6000610f36610ca2565b9050610f428282610efb565b919050565b600067ffffffffffffffff821115610f6257610f61610ecc565b5b610f6b82610ebb565b9050602081019050919050565b82818337600083830152505050565b6000610f9a610f9584610f47565b610f2c565b905082815260208101848484011115610fb657610fb5610eb6565b5b610fc1848285610f78565b509392505050565b600082601f830112610fde57610fdd610e04565b5b8135610fee848260208601610f87565b91505092915050565b60006020828403121561100d5761100c610cac565b5b600082013567ffffffffffffffff81111561102b5761102a610cb1565b5b61103784828501610fc9565b91505092915050565b600081519050919050565b600082825260208201905092915050565b60005b8381101561107a57808201518184015260208101905061105f565b83811115611089576000848401525b50505050565b600061109a82611040565b6110a4818561104b565b93506110b481856020860161105c565b6110bd81610ebb565b840191505092915050565b60006040820190506110dd6000830185610dda565b81810360208301526110ef818461108f565b90509392505050565b600067ffffffffffffffff82111561111357611112610ecc565b5b602082029050602081019050919050565b600067ffffffffffffffff82111561113f5761113e610ecc565b5b61114882610ebb565b9050602081019050919050565b600061116861116384611124565b610f2c565b90508281526020810184848401111561118457611183610eb6565b5b61118f848285610f78565b509392505050565b600082601f8301126111ac576111ab610e04565b5b81356111bc848260208601611155565b91505092915050565b60006111d86111d3846110f8565b610f2c565b905080838252602082019050602084028301858111156111fb576111fa610e0e565b5b835b8181101561124257803567ffffffffffffffff8111156112205761121f610e04565b5b80860161122d8982611197565b855260208501945050506020810190506111fd565b5050509392505050565b600082601f83011261126157611260610e04565b5b81356112718482602086016111c5565b91505092915050565b6000602082840312156112905761128f610cac565b5b600082013567ffffffffffffffff8111156112ae576112ad610cb1565b5b6112ba8482850161124c565b91505092915050565b600081519050919050565b600082825260208201905092915050565b60006112ea826112c3565b6112f481856112ce565b935061130481856020860161105c565b61130d81610ebb565b840191505092915050565b6000602082019050818103600083015261133281846112df565b905092915050565b61134381610d63565b82525050565b600060208201905061135e600083018461133a565b92915050565b7f4e487b7100000000000000000000000000000000000000000000000000000000600052601160045260246000fd5b600061139e82610cb6565b91506113a983610cb6565b9250828210156113bc576113bb611364565b5b828203905092915050565b60006113d282610cb6565b91507fffffffffffffffffffffffffffffffffffffffffffffffffffffffffffffffff82141561140557611404611364565b5b600182019050919050565b7f4e487b7100000000000000000000000000000000000000000000000000000000600052602260045260246000fd5b6000600282049050600182168061145757607f821691505b6020821081141561146b5761146a611410565b5b50919050565b600081905092915050565b60008190508160005260206000209050919050565b6000815461149e8161143f565b6114a88186611471565b945060018216600081146114c357600181146114d457611507565b60ff19831686528186019350611507565b6114dd8561147c565b60005b838110156114ff578154818901526001820191506020810190506114e0565b838801955050505b50505092915050565b600061151c8284611491565b915081905092915050565b600081549050919050565b600081905092915050565b60008190508160005260206000209050919050565b600081905092915050565b6000815461156a8161143f565b6115748186611552565b9450600182166000811461158f57600181146115a1576115d4565b60ff19831686526020860193506115d4565b6115aa8561147c565b60005b838110156115cc578154818901526001820191506020810190506115ad565b808801955050505b50505092915050565b60006115e9838361155d565b905092915050565b6000600182019050919050565b600061160982611527565b6116138185611532565b935061161e8361153d565b8060005b8381101561164e578161163588826115dd565b9750611640836115f1565b925050600181019050611622565b5085935050505092915050565b600061166782846115fe565b915081905092915050565b7f4e487b7100000000000000000000000000000000000000000000000000000000600052603260045260246000fdfea2646970667358221220038715e45b5ceaaaed8fa08179dbb811dbb0a8e97b9674c18d7c725f2683af3664736f6c63430008090033",
  "devdoc": {
    "kind": "dev",
    "methods": {},
    "version": 1
  },
  "userdoc": {
    "kind": "user",
    "methods": {},
    "version": 1
  },
  "storageLayout": {
    "storage": [
      {
        "astId": 77,
        "contract": "contracts/Voting.sol:Voting",
        "label": "Parties",
        "offset": 0,
        "slot": "0",
        "type": "t_array(t_string_storage)dyn_storage"
      },
      {
        "astId": 81,
        "contract": "contracts/Voting.sol:Voting",
        "label": "voting",
        "offset": 0,
        "slot": "1",
        "type": "t_mapping(t_uint256,t_uint256)"
      },
      {
        "astId": 85,
        "contract": "contracts/Voting.sol:Voting",
        "label": "voters",
        "offset": 0,
        "slot": "2",
        "type": "t_mapping(t_address,t_bool)"
      },
      {
        "astId": 87,
        "contract": "contracts/Voting.sol:Voting",
        "label": "s_winner",
        "offset": 0,
        "slot": "3",
        "type": "t_string_storage"
      },
      {
        "astId": 89,
        "contract": "contracts/Voting.sol:Voting",
        "label": "s_lastTimeStamp",
        "offset": 0,
        "slot": "4",
        "type": "t_uint256"
      }
    ],
    "types": {
      "t_address": {
        "encoding": "inplace",
        "label": "address",
        "numberOfBytes": "20"
      },
      "t_array(t_string_storage)dyn_storage": {
        "base": "t_string_storage",
        "encoding": "dynamic_array",
        "label": "string[]",
        "numberOfBytes": "32"
      },
      "t_bool": {
        "encoding": "inplace",
        "label": "bool",
        "numberOfBytes": "1"
      },
      "t_mapping(t_address,t_bool)": {
        "encoding": "mapping",
        "key": "t_address",
        "label": "mapping(address => bool)",
        "numberOfBytes": "32",
        "value": "t_bool"
      },
      "t_mapping(t_uint256,t_uint256)": {
        "encoding": "mapping",
        "key": "t_uint256",
        "label": "mapping(uint256 => uint256)",
        "numberOfBytes": "32",
        "value": "t_uint256"
      },
      "t_string_storage": {
        "encoding": "bytes",
        "label": "string",
        "numberOfBytes": "32"
      },
      "t_uint256": {
        "encoding": "inplace",
        "label": "uint256",
        "numberOfBytes": "32"
      }
    }
  }
}